:100000000C9451000C9479000C9479000C947900B4
:100010000C9479000C9479000C9479000C9479007C
:100020000C9479000C9479000C9479000C9479006C
:100030000C9479000C9479000C948A060C943B077C
:100040000C9479000C9479000C9479000C9479004C
:100050000C9479000C9479000C9479000C9479003C
:100060000C9479000C9479000C9479000C9479002C
:100070000C9479000C9479000C9479000C9479001C
:100080000C9479000C9479000C9479000C9479000C
:100090000C94B7050C9441060C941B060C94790043
:1000A000FB0711241FBECFEFCDBFDFE3DEBF18E299
:1000B000A0E0B8E2ECEEFAE102C005900D92A430A7
:1000C000B107D9F729E2A4E0B8E201C01D92A43E2D
:1000D000B207E1F710E0C1E5D0E004C02197FE01CE
:1000E0000E94BC0AC035D107C9F70E942E080C94A3
:1000F0000D0D0C940000FC0154894589252F30E03A
:10010000842F90E0821B930B541710F0CF96089524
:1001100001970895FC0192898389981761F0A3895A
:10012000AE0FBF2FB11D59968C9193899F5F9F731E
:10013000938B90E008958FEF9FEF0895FC019289D3
:100140008389981731F08389E80FF11D818D90E044
:1001500008958FEF9FEF0895FC0192892389892FDD
:1001600090E0805C9F4F821B91098F7399270895BF
:10017000CF93DF93EC01E881F9810680F781E02DD0
:100180000995EC85FD8586818F738683EC85FD85D9
:1001900085818F7585838B898A8B198ADF91CF91B1
:1001A0000895CF93DF93FC0194898589C485D58513
:1001B000981306C08D818F7D8D83DF91CF91089537
:1001C000A589AE0FBF2FB11DA75ABF4F2C918589AE
:1001D00090E001968F739927858B80E48C83A485AA
:1001E000B58512962C93948985899813E6CFA485BA
:1001F000B58515968C9115978F7D15968C9387896B
:100200008823D9F2808D80931301178AD6CFDC0121
:100210001C96ED91FC910FB607FE03C0258125FDCC
:1002200004C0248125FD0C94D1000895EF92FF9223
:100230000F931F93CF93DF93EC0181E0898B9C890F
:100240008D8998131CC0AC85BD8514968C9114972C
:1002500085FF15C012966C93AC85BD8580E414961D
:100260008C93EC85FD8585818F7D858381E090E091
:10027000DF91CF911F910F91FF90EF9008958091A2
:10028000110180FF08C080911301888F8E898093AF
:10029000130181E08F8BF62E0C8910E00F5F1F4F4A
:1002A0000F731127E02E8D898E1104C0CE010E949C
:1002B0000701F9CFEC89EC0FFD2FF11DE75AFF4F35
:1002C000F0820C8BEC85FD8585818062CECFCF934B
:1002D000DF93FC0121892223C9F0EC0180911101F7
:1002E00080FF08C080911301808F8689809313015D
:1002F00081E0878BEC85FD85858185FD03C0848148
:1003000086FD04C0CE010E940701F4CFDF91CF919A
:100310000895CF93DF9390E0FC01E459F54A2081E2
:100320002F3F69F0FC01EE5AF54AE08130E2E39F8D
:10033000F0011124FC5F6130710521F42183DF910C
:10034000CF910895885C954AEC01A881AF3F69F090
:10035000CF014096A80FB92FB11D9FB7F894228303
:100360008C9188608C939FBFEACFB0E0A0E0F5CF7E
:10037000CF92DF92EF92FF920F931F93CF93DF9371
:10038000EC016A017B01022F8989882339F0E88119
:10039000F9810288F389E02DCE0109959889809131
:1003A000E205892B8093E2051FB7F89460E070E2C4
:1003B00081EA97E0A70196010E94680A69017A0123
:1003C0008FEFC81AD80AE80AF80AF694E794D79487
:1003D000C794EC85FD8586818D7F8683EC85FD85C0
:1003E00086818683198AA09123110A2E000CBB0BEB
:1003F000A70196010E94B40A20E034E040E050E0FA
:100400000E948A0AEC85FD85C20ED31EE41EF51EED
:10041000C086D186EC85FD850783EC85FD858681C8
:10042000806C8683EC85FD858581806885838E85DB
:100430008B3220F462E070E00E9489018F858B325C
:10044000F8F490E0FC01E459F54A40814F3FC1F0D7
:10045000FC01E25EF54AE081EE2329F0E13009F18A
:1004600010F0E63080F1FC01EE5AF54AE081B0E28E
:10047000EB9FF0011124FC5F2081242371F145835F
:100480008F858B3220F461E070E00E9489011FBFEC
:10049000DF91CF911F910F91FF90EF90DF90CF9060
:1004A00008956091010AFC01E85CF54A50815C5FA7
:1004B00021E030E001C0220F5A95EAF7209526236B
:1004C0002093010AD0CFA0E1EA9FF0011124E05A65
:1004D000F54F21812F7E2183C6CF885C954ADC01B0
:1004E0008C91309761F08F3F51F07096E80FF11DBD
:1004F0009FB7F8948081886080839FBFC1CFF0E070
:10050000E0E0F6CFCF93DF938FB7F89420913929AD
:1005100030913A2940913B2950913C29E091BA0A07
:100520009091B60A90FF06C02F5F3F4F4F4F5F4F2D
:10053000E091BA0A8FBFA0913729B0913829C091B4
:100540003529D09136290E94A90AEC9F9001ED9F90
:10055000300D1124620F731F811D911DDF91CF910A
:10056000089580912A2990912929891B990B089532
:10057000AF92BF92CF92DF92EF92FF920F931F93B1
:10058000CF93DF936C017B018B01040F151FEB01EF
:100590005E01AE18BF08C017D10759F06991D601A6
:1005A000ED91FC910190F081E02DC6010995892B18
:1005B00079F7C501DF91CF911F910F91FF90EF90D7
:1005C000DF90CF90BF90AF90089581E008950F9392
:1005D00091E0909328291092272960932529709300
:1005E000262940932429209323291092222910920E
:1005F000212900932029880F80931F2923E030E0D0
:1006000044E050E080912429882341F020931D2963
:1006100030931E2980911F298E7F0BC08091232942
:10062000882351F040931D2950931E2980911F2942
:1006300081608093A70808C080912429811104C09B
:1006400080912329882311F3809127298823E1F3BE
:10065000809127298330B1F280912329882321F0CA
:10066000809121290F91089580912729823031F0BE
:10067000853031F0813031F480E0F4CF81E0F2CF89
:1006800083E0F0CF84E0EECFE0EAF8E09185906679
:10069000918722E030E020931D2930931E2980931A
:1006A0000F2910920E29089581E080930E2910924F
:1006B0000F2993E09093AA089091AB0891FF10C086
:1006C00010921B29E0910C29F0910D290995809336
:1006D0001A2985E090E080931D2990931E290895A2
:1006E00010921C298093192986E090E0F4CF8F9214
:1006F0009F92AF92BF92CF92DF92EF92FF92CF93F1
:10070000DF9360342DE0720723E08207910508F43F
:1007100054C0611525E372072CE08207910508F4A7
:1007200045C060387F448241910508F046C0C8E763
:10073000D0E020E432E44FE050E080900028909038
:100740000128A0900228B0900328C501B4010E949E
:10075000680A69017A018AE0C81AD108E108F1083B
:10076000C501B40120E432E44FE050E00E94680A81
:10077000DE010E94A90A28EE33E040E050E00E942A
:10078000680AC21AD30AE40AF50AF694E794D794E1
:10079000C794C092A608DF91CF91FF90EF90DF90B1
:1007A000CF90BF90AF909F908F900895CCE2D1E012
:1007B00020E83AE146E050E0C0CFC8EED3E020EABE
:1007C00036E841E050E0B9CF60930A2970930B29D5
:1007D000089560930829709309290895E0910A29E2
:1007E000F0910B29309741F01092072910920629B9
:1007F000099580910629089580E00895E0910829DF
:10080000F0910929309759F03091292920912A290E
:10081000321728F01092292980932A2909940895E3
:100820000895E091292980912A29E81730F4F0E011
:10083000EA57F74D808190E008958FEF9FEF08957C
:100840009091292980912A292FEF3FEF981748F49A
:10085000E92FF0E0EA57F74D208130E09F5F909359
:100860002929C9010895CF92DF92EF92FF920F9349
:100870001F93CF93DF937C018A01EB016B01C40EC0
:10088000D51ECC15DD0551F06991D701ED91FC9194
:100890000190F081E02DC7010995F3CFC801DF91E8
:1008A000CF911F910F91FF90EF90DF90CF9008951F
:1008B0002091062927FF08C021E030E0FC012283B7
:1008C000338390E080E0089580910729E82FF0E0DD
:1008D000EA5FF74D60838F5F809307298093062935
:1008E00081E090E00895DC01ED91FC91008CF18DA8
:1008F000E02D61E009940F9380911D2990911E29AC
:100900000197A1F480912829811112C0062F20E0BF
:100910004091062966E078E2809105280E94E7026E
:1009200010920729109206290F91089580E0F8CFC0
:1009300081E0F6CF609305281092072910920629CE
:100940000895DC01ED91FC91048CF58DE02D21E002
:1009500009940F9386E898E28093102990931129C7
:1009600080911D2990911E290197C9F48091282911
:10097000811117C0FA014138510510F0E0E8F0E0AC
:10098000022F862F2E2F40E070E060E00E94E702E9
:100990001092292980932A2990E00F91089580E0F0
:1009A000F7CF81E0F5CFCB01BA010C947703E0EAF1
:1009B000F8E01382168281E08583148611861092F6
:1009C0001D2910921E2908951092292910922A2972
:1009D000109207291092062980911D2990911E29B5
:1009E000892BD9F482E090E080931D2990931E29F1
:1009F00010921C2910921B2910920E2910920F2977
:100A00001092042810921929660F6093AC0881EEA9
:100A10008093A90881E08093A3088EEE93E08093F1
:100A20000C2990930D2986E098E2809312299093E7
:100A300013298EEF93E0809317299093182986E865
:100A400098E2809314299093152980E880931629C1
:100A500008951092292910922A291092072910929C
:100A6000062980911D2990911E29892B41F562E06C
:100A700070E086E10E94890162E070E087E10E94F7
:100A800089018091E3058093E30581E090E0809304
:100A90001D2990931E29109221291092222910922B
:100AA00028291092272981EC8093A30860EA76E830
:100AB00081E090E00E94770381E08093A50808958B
:100AC00090E080E00895DC01ED91FC910088F189CF
:100AD000E02D23E030E00994FC0101900020E9F7CB
:100AE0003197AF01481B590BBC018DE399E20C947F
:100AF000B8028F929F92AF92BF920F931F93CF93A2
:100B0000DF93CDB7DEB7A197CDBFDEBF19A24230CC
:100B100008F44AE08E010F5D1F4F842E912CB12CFA
:100B2000A12CA50194010E94680AE62FB901CA010F
:100B3000EA30DCF4E05DD801EE938D01232B242B09
:100B4000252B79F790E080E0109719F0CD010E94F5
:100B50006C05A196CDBFDEBFDF91CF911F910F91A4
:100B6000BF90AF909F908F900895E95CE4CF1F9263
:100B70000F920FB60F9211242F933F934F935F93D1
:100B80006F937F938F939F93AF93BF93409131293E
:100B900050913229609133297091342980912F2905
:100BA0009091302920912D2930912E29420F531FE9
:100BB000611D711D20912B2930912C29820F931FCB
:100BC000883E23E0920730F0885E93404F5F5F4F8E
:100BD0006F4F7F4F80932F29909330294093312975
:100BE00050933229609333297093342980913929A5
:100BF00090913A29A0913B29B0913C290196A11DE1
:100C0000B11D8093392990933A29A0933B29B09341
:100C10003C2981E08093B60ABF91AF919F918F915B
:100C20007F916F915F914F913F912F910F900FBEE8
:100C30000F901F9018951F920F920FB60F921124CC
:100C40002F933F934F935F936F937F938F939F93D4
:100C5000AF93BF93EF93FF938DE399E20E94D1008E
:100C6000FF91EF91BF91AF919F918F917F916F9184
:100C70005F914F913F912F910F900FBE0F901F905A
:100C800018951F920F920FB60F9211242F933F9336
:100C90004F935F936F937F938F939F93AF93BF9384
:100CA000EF93FF93E0914929F0914A29818181FDD9
:100CB0002FC0608180914F298F5F8F739091502951
:100CC000891741F0E0914F29F0E0E35CF64D618F28
:100CD00080934F298091D6299091D729009739F098
:100CE000DC01ED91FC910190F081E02D0995FF91DF
:100CF000EF91BF91AF919F918F917F916F915F9194
:100D00004F913F912F910F900FBE0F901F9018950C
:100D10008081EDCF1F920F920FB60F9211242F9367
:100D20003F934F935F936F937F938F939F93AF9373
:100D3000BF93CF93EF93FF93C091AB08C2FF0AC05C
:100D400010921C2910921B2910921A2984E00E94EB
:100D5000440314C0C6FF2FC080911929813051F47B
:100D600080911C29E0911729F091182990E00995AC
:100D700010921929C0FF14C00E945403FF91EF91F3
:100D8000CF91BF91AF919F918F917F916F915F9123
:100D90004F913F912F910F900FBE0F901F9018957C
:100DA00080E48093AB0881E00E9444038091AB080B
:100DB00085FFE4CFE1CFC7FF5CC0C3FF08C010923E
:100DC0001C2910921B2910921A2983E0C0CF809110
:100DD000A90880668093A9088091AB0881FF2CC088
:100DE00080911B29882349F08091AB0884FF05C0BE
:100DF00082E08093AA0881E0AACF90911B2980917C
:100E00001A299817A8F4E0911B2980911229909132
:100E10001329E80FF92FF11D80818093AD0880918F
:100E20001B298F5F80931B2983E08093AA08A6CF9C
:100E300082E08093AA088BCF90911C29809116297B
:100E4000981790F48091AD08E0911C292091142905
:100E500030911529E20FF32FF11D808380911C2919
:100E60008F5F80931C29E0CF86E08093AA0882E000
:100E70006ECF85E06CCF1F920F920FB60F921124A8
:100E80002F933F938F939F93EF93FF938091A508A8
:100E9000982F9C70E1F08091A50894E082FF93E088
:100EA000909327298093A50881E090E080931D29E5
:100EB00090931E2910922829FF91EF919F918F9175
:100EC0003F912F910F900FBE0F901F90189586FFA6
:100ED0004EC020912429909123298091A50884FF58
:100EE00015C080912029882379F083E08093A4089D
:100EF00085E0809327291092282981E090E0809353
:100F00001D2990931E29D8CF81E0F0CF809122290E
:100F1000821790F4E0912229809125299091262929
:100F2000E80FF92FF11D80818093A8088091222974
:100F30008F5F80932229C0CF80912129891760F487
:100F400084E090E080931D2990931E2980911F29B1
:100F500081608093A708B0CF80912029882329F051
:100F600083E08093A40881E0C4CF81E0FACF87FFBB
:100F700040C090912129809123299817D8F480911D
:100F8000A808E09121292091102930911129E20F20
:100F9000F32FF11D8083809121298F5F8093212978
:100FA00090912329809121298917D8F482E0809398
:100FB000A40882CF80912029882389F087E080933C
:100FC000A40882E0809327291092282981E090E0EC
:100FD00080931D2990931E29109223296DCF85E0BF
:100FE000EECF80912029882311F087E0BACF85E0E9
:100FF000B8CF86E07ECFEDE3F9E21282138288EE6D
:1010000093E0A0E0B0E084839583A683B7832AE8C9
:101010003AE52083318320E638E02487358728E1CC
:10102000268729E1278720E4208B128A138A148AD5
:10103000158A26E2268B178A108E1092D6291092D6
:10104000D729E8EDF9E21282138284839583A6837F
:10105000B78384EA9AE5808391830895CF93DF93E1
:10106000CDB7DEB7C655D109CDBFDEBF88ED90E064
:1010700084BF9093610080E094E2A4EFB0E080939D
:10108000002890930128A0930228B0930328809110
:10109000020686608093020680910006816080933C
:1010A0000006809102068F7C809302068091A0004A
:1010B0008F788093A0008091020680618093020661
:1010C0001092E20581E08093E40583E08093010AB9
:1010D0008FEF90E08093260A9093270A80E890E0B3
:1010E0008093380A9093390A80933A0A90933B0A86
:1010F00080933C0A90933D0A8BE08093000A809194
:10110000E50581608093E5058091E5058260809327
:10111000E505E0E8FAE037E02FEF90E885E031837D
:101120002487958780837096E03C4AE0F407B9F7FE
:1011300080E094E080933729909338298091372973
:10114000909138292FEF30E0B9010E94540A609342
:101150003529709336298091372990913829E8EE06
:10116000F3E0BF010E94540A60932D2970932E2949
:101170008091372990913829BF010E94540A8093A9
:101180002B2990932C292093BC0A3093BD0A80917F
:10119000B50A81608093B50A84E08093B00A80919B
:1011A000B00A81608093B00A789440E855E260E02C
:1011B00070E08DE399E20E94630588ED99E20E9458
:1011C0002905CE0101967C016E0191E4C90ED11C66
:1011D0001E01A9E22A0E311C63962EAE3FAE639724
:1011E000D701E8E21D92EA95E9F7D601E0E11D9208
:1011F000EA95E9F721E040E150E067E788ED99E200
:101200000E94A90486013601F0E16F0E711C4601AF
:1012100090912A2980912929981751F088ED99E217
:101220000E942004D4018D934D016A167B0681F73C
:101230002701F701D80111968C9111979C9189276C
:1012400098278927819391930E5F1F4F601671062F
:1012500089F7F10128E111922A95E9F721E048E1A7
:1012600050E068E788ED99E20E94A904810131010C
:1012700048E1640E711C410190912A29809129292D
:10128000981751F088ED99E20E942004D4018D93C3
:101290004D016A167B0681F7FE017196D801119601
:1012A0008C9111979C9189279827892781939193F5
:1012B0000E5F1F4F6016710689F7F70160E081919C
:1012C0009191883E934008F06F5F63968EAD9FAD1D
:1012D00063978E179F0799F770E090E080E00E9477
:1012E000E60B20E030E040EA51E40E94430B20E0AE
:1012F00030E048EC52E40E949B0C4B015C0188EC0E
:101300009AE50E946C0510E0D2016D917D912D014E
:1013100090E080E04AE00E947905133121F08FECE3
:101320009AE50E946C051F5F143171F782ED9AE512
:101330000E946C05A5019401C501B4010E94080D2D
:101340008823A9F189ED9AE50E946C0587EE9AE55C
:101350000E946C0589EE9AE50E946C050E9482024B
:101360002B013C01B0E44B0EB2E45B1EBFE06B1EF0
:10137000711CE0E44E16E2E45E06EFE06E067104D6
:1013800038F40E9482024616570668067906C8F3AA
:101390000E9482026415750586059705C8F380E0F2
:1013A00090E0892B09F41CCF0E94000019CF240182
:1013B0003501E89477F82FEF3FEF4FE75FE7C30180
:1013C000B2010E94080D81110DC02FEF3FEF4FE7D2
:1013D0005FE7C301B2010E943E0B18161CF48DEDAD
:1013E0009AE5B2CF2FEF3FEF4FE75FE4C501B401BD
:1013F0000E94960C18161CF481EE9AE5A5CF2FEFEB
:101400003FEF4FE75FECC501B4010E943E0B87FD43
:10141000F3CF20E030E0A901C501B4010E943E0BEA
:1014200087FF09C06DE28DE399E20E941601B7FAC9
:10143000B094B7F8B0942DEC3CEC4CE45DE3C501FE
:10144000B4010E94D20A4B015C010E94B50B2B0132
:101450003C010E94E40B9B01AC01C501B4010E9458
:10146000D10A67966CAF7DAF8EAF9FAF67974AE0AA
:10147000C301B2010E94790585EE9AE50E946C05D0
:1014800020E030E040E251E467966CAD7DAD8EAD7A
:101490009FAD67970E949B0C0E94B50B90E080E087
:1014A0004AE00E94790552CFAA1BBB1B51E107C03D
:1014B000AA1FBB1FA617B70710F0A61BB70B881FE4
:1014C000991F5A95A9F780959095BC01CD01089573
:1014D000A1E21A2EAA1BBB1BFD010DC0AA1FBB1F38
:1014E000EE1FFF1FA217B307E407F50720F0A21BAA
:1014F000B30BE40BF50B661F771F881F991F1A9417
:1015000069F760957095809590959B01AC01BD0140
:10151000CF010895052E97FB1EF400940E94A10AA6
:1015200057FD07D00E94680A07FC03D04EF40C94C4
:10153000A10A50954095309521953F4F4F4F5F4FF1
:10154000089590958095709561957F4F8F4F9F4F2F
:1015500008950E94C20AA59F900DB49F900DA49F6C
:10156000800D911D11240895B7FF0C94A90A0E94C3
:10157000A90A821B930B0895EE0FFF1F0590F491AB
:10158000E02D0994A29FB001B39FC001A39F700DED
:10159000811D1124911DB29F700D811D1124911D7B
:1015A00008955058BB27AA270E94E90A0C945C0CA6
:1015B0000E944E0C38F00E94550C20F039F49F3FE9
:1015C00019F426F40C944B0C0EF4E095E7FB0C9404
:1015D000450CE92F0E946D0C58F3BA176207730788
:1015E0008407950720F079F4A6F50C948F0C0EF47F
:1015F000E0950B2EBA2FA02D0B01B90190010C0123
:10160000CA01A0011124FF27591B99F0593F50F43A
:10161000503E68F11A16F040A22F232F342F442792
:10162000585FF3CF469537952795A795F04053958A
:10163000C9F77EF41F16BA0B620B730B840BBAF05A
:101640009150A1F0FF0FBB1F661F771F881FC2F7C5
:101650000EC0BA0F621F731F841F48F487957795D9
:101660006795B795F7959E3F08F0B0CF9395880F93
:1016700008F09927EE0F9795879508950E94210C01
:1016800008F481E008950E94570B0C945C0C0E94B2
:10169000550C58F00E944E0C40F029F45F3F29F0A1
:1016A0000C94450C51110C94900C0C944B0C0E9412
:1016B0006D0C68F39923B1F3552391F3951B550BEA
:1016C000BB27AA2762177307840738F09F5F5F4F15
:1016D000220F331F441FAA1FA9F335D00E2E3AF054
:1016E000E0E832D091505040E695001CCAF72BD06C
:1016F000FE2F29D0660F771F881FBB1F26173707BD
:101700004807AB07B0E809F0BB0B802DBF01FF27EE
:1017100093585F4F3AF09E3F510578F00C94450C7A
:101720000C94900C5F3FE4F3983ED4F38695779544
:101730006795B795F7959F5FC9F7880F911D9695A7
:10174000879597F90895E1E0660F771F881FBB1F03
:10175000621773078407BA0720F0621B730B840BB0
:10176000BA0BEE1F88F7E09508950E94750C88F07B
:101770009F5798F0B92F9927B751B0F0E1F0660F55
:10178000771F881F991F1AF0BA95C9F714C0B13096
:1017900091F00E948F0CB1E008950C948F0C672F8C
:1017A000782F8827B85F39F0B93FCCF386957795C5
:1017B0006795B395D9F73EF49095809570956195AE
:1017C0007F4F8F4F9F4F0895E89409C097FB3EF4D9
:1017D00090958095709561957F4F8F4F9F4F99237E
:1017E000A9F0F92F96E9BB279395F69587957795FC
:1017F0006795B795F111F8CFFAF4BB0F11F460FFBC
:101800001BC06F5F7F4F8F4F9F4F16C0882311F013
:1018100096E911C0772321F09EE8872F762F05C027
:10182000662371F096E8862F70E060E02AF09A95C2
:10183000660F771F881FDAF7880F9695879597F9B7
:101840000895990F0008550FAA0BE0E8FEEF161651
:101850001706E807F907C0F012161306E407F507A4
:1018600098F0621B730B840B950B39F40A2661F018
:10187000232B242B252B21F408950A2609F4A140BB
:10188000A6958FEF811D811D089597F99F6780E8C8
:1018900070E060E008959FEF80EC089500240A94C2
:1018A0001616170618060906089500240A9412163B
:1018B0001306140605060895092E0394000C11F46E
:1018C000882352F0BB0F40F4BF2B11F460FF04C01B
:1018D0006F5F7F4F8F4F9F4F089557FD9058440F74
:1018E000551F59F05F3F71F04795880F97FB991F7F
:1018F00061F09F3F79F0879508951216130614063C
:10190000551FF2CF4695F1DF08C0161617061806C8
:10191000991FF1CF86957105610508940895E894A3
:10192000BB2766277727CB0197F908950E94210CE2
:1019300008F48FEF08950E94AE0C0C945C0C0E948A
:101940004E0C38F00E94550C20F0952311F00C94A9
:10195000450C0C944B0C11240C94900C0E946D0CB3
:1019600070F3959FC1F3950F50E0551F629FF001F2
:10197000729FBB27F00DB11D639FAA27F00DB11D0B
:10198000AA1F649F6627B00DA11D661F829F222794
:10199000B00DA11D621F739FB00DA11D621F839F1B
:1019A000A00D611D221F749F3327A00D611D231FF1
:1019B000849F600D211D822F762F6A2F11249F573F
:1019C00050409AF0F1F088234AF0EE0FFF1FBB1F42
:1019D000661F771F881F91505040A9F79E3F510501
:1019E00080F00C94450C0C94900C5F3FE4F3983E0F
:1019F000D4F3869577956795B795F795E7959F5FAB
:101A0000C1F7FE2B880F911D9695879597F908953C
:0E1A10000E94210C880B990B0895F894FFCFCB
:101A1E0000000003000102000001010000000000B0
:101A2E000000000000000000000005040005060292
:101A3E000401030001000102030201000203040578
:101A4E00020305040202000502010500040101045F
:101A5E000404030303030505030300000101201022
:101A6E0001204004100208010201020408040201D0
:101A7E000408102004082010000000001601B8020F
:101A8E007B006701AC008A009E006305B801B800B8
:101A9E00E502000000005804330460051004B10292
:101AAE00200411042905E404D704D3049A047B040A
:101ABE007304A904A104E903E403574C533A205BD1
:101ACE00002C20005D20E2809420006E616E006983
:0E1ADE006E66006F7666002E0025000D0A0071
:041AEC000024F400DE
:00000001FF
