:100000000C943E000C945B000C945B000C945B0021
:100010000C945B000C945B000C9462000C945B00ED
:100020000C945B000C945B000C945B000C945B00E4
:100030000C945B000C945B000C945B000C945B00D4
:100040000C945B000C945B000C945B000C945B00C4
:100050000C946B020C945B000C945B000C945B00A2
:100060000C94B9030C945B000C945B000C945B0043
:100070000C945B000C945B000C945B0011241FBE7D
:10008000CFEFCDBFDFE3DEBF18E3A0E0B8E3E8E7E2
:10009000FAE102C005900D92AA3BB107D9F729E316
:1000A000AAEBB8E301C01D92A93BB207E1F70E9499
:1000B0000A010C94370D0C9400000E94DE020E948D
:1000C000940108951F920F920FB60F9211242F934F
:1000D0003F934F935F936F937F938F939F93AF93D0
:1000E000BF93EF93FF930E944A0282E08093430103
:1000F000FF91EF91BF91AF919F918F917F916F9100
:100100005F914F913F912F910F900FBE0F901F90D5
:1001100018958091E6388F5F8093E6380895FFCF79
:100120000E9412038093C8380E941C038091E53816
:100130008F5F8093E5381092BA381092C7380895CF
:100140000E9412038093C9380E941C038091E738F3
:100150008F5F8093E73808958091C73881110CC074
:10016000E091BA38F0E0EE0FFF1FE653F74C8081C4
:1001700091810E9415030CC0E091BA38F0E0EE0FB7
:10018000FF1FE653F74C80819181892F0E94150350
:100190008091C73890E0019681709078992324F47B
:1001A00001978E6F9F6F01968093C7388091C738F3
:1001B00081110AC08091BA3890E001966CE070E03D
:1001C0000E940F0D8093BA388091E4388F5F80933E
:1001D000E4380895CF93DF931092E2381092E33819
:1001E000C0E0D0E0CE010E945E02CC0FDD1FC653FE
:1001F000D74C88839983C091E238D091E338219617
:10020000C093E238D093E338CC30D1055CF3DF9172
:10021000CF9108950E945D0078948CEA90E00E944E
:10022000300380EA90E00E943D0380E990E00E9464
:100230004A0389E890E00E9457038FE890E00E940B
:1002400064038FE890E00E94DD030E940C03789421
:100250000E940E028091BC38813011F40E94EA00A5
:1002600080E395E70197F1F7F3CFE6E4F9E38081C6
:10027000826080830895E0911838F0911938808168
:10028000882344F4E0914439F091453980818460B9
:100290008083089581E08093BC380895882324F4F6
:1002A00081E08093BB38089586FD03C01092BB386F
:1002B00008958F708E5F8093BB3808950F931F93BE
:1002C000CF93DF938CE299E30E94130CC0E0D0E05F
:1002D000BE018EE498E30E94830CBE018EE498E395
:1002E0000E94A20C2196CC30D10591F700EF18E3C3
:1002F000C0E0A8016C2F88E198E30E946504CF5FFD
:100300000B5F1F4FCC30A9F7DF91CF911F910F9159
:100310000895E0E4F1E0918192FDFDCF90E08093BB
:100320004A0190934B01089580E20E948901E1E522
:10033000F4E08081877F8083E2E5F4E08081877F3D
:100340008083E3E5F4E08081877F8083E0E5F4E06B
:100350008081877F8083E0E3F4E08081877F8083F2
:10036000E1E3F4E08081877F8083E4E3F4E080814F
:10037000877F8083E5E3F4E08081877F8083E7E106
:10038000F4E08081877F8083E6E1F4E08081877FED
:100390008083E5E1F4E08081877F8083E4E1F4E01D
:1003A0008081877F8083E6E4F9E3108284E198E32B
:1003B0008183928380E198E38383948388E098E348
:1003C000858396838CE098E38783908780E098E329
:1003D0008187928784E098E3838794878FE49AE00B
:1003E000858796878EE591E08787908B8EE491E0F4
:1003F000818B928B85E391E0838B948B158A168A8F
:100400008BE391E0878B908FCF010E944A080E9476
:10041000450880934439909345390895E0914439D3
:10042000F0914539808180FF0CC080E00E94A908CE
:10043000811107C0E0914439F091453980818E7F68
:100440008083E0914439F0914539808181FF21C05A
:100450000E94F908811103C00E94010903C080E8CD
:100460000E944E01E0914439F091453980818D7FA1
:100470008083E0914439F0914539808182FF09C041
:1004800081608083E0914439F091453980818B7F90
:10049000808308958091EF388F5F843118F48093C2
:1004A000EF3808951092EF38E6E4F9E38081816037
:1004B000808384E190E00E945A0408959C01220FF9
:1004C000331F220F331F820F931FFC01E051F74CA3
:1004D0008181928108951F920F920FB60F9211247D
:1004E0002F933F934F935F936F937F938F939F933C
:1004F000AF93BF93EF93FF930E94E30CFF91EF91B3
:10050000BF91AF919F918F917F916F915F914F912B
:100510003F912F910F900FBE0F901F90189580E084
:10052000089580E00895789480E00895E0E1F4E093
:10053000808188608193E83184E0F807C9F7E0E3BF
:10054000F4E0808188608193E83384E0F807C9F79C
:10055000E0E5F4E0808188608193E83584E0F80785
:10056000C9F70895029A0A98E2E1F4E08081877F52
:10057000808380818F7780838081887F8083A0E0E3
:10058000B2E011968C911197806111968C9311971E
:10059000019A0998E1E1F4E08081877F808380817E
:1005A0008F7780838081887F808311968C911197CB
:1005B000806111968C930E94ED0208950E9496022C
:1005C0000E9491020E94E2030E9493020E94EF03A4
:1005D0000E94B2020E948F020895E0E1F8E080EFED
:1005E000848781EE81871092A9391092AA391092DE
:1005F000AB391092AC391092AD391092AE391092DD
:10060000A7391092A8391092B1391092B2391092CC
:10061000AF391092B0390895E0E1F8E0818581604A
:100620008187089580911D080895E0E1F8E08587AD
:10063000828583608287089583E080931A080895F5
:10064000E0E1F8E08385806C838782E0828708950B
:10065000E091AB39F091AC39309709F009950895E4
:100660008093AB399093AC390895E091A939F0911A
:10067000AA39309709F0099508958093A939909384
:10068000AA390895E091AD39F091AE39309709F06B
:10069000099508958093AD399093AE390895E0910E
:1006A000A739F091A839309709F0099508958093FA
:1006B000A7399093A8390895E091B139F091B239F2
:1006C000309709F0099508958093B1399093B23924
:1006D0000895E091AF39F091B039309709F009955C
:1006E000089580911B0883FF03C00E945C03089556
:1006F00080911B0882FF03C00E94690308958091C6
:100700001B0886FF10C080911B0880FF0CC00E9450
:10071000420380911B0881FF2BC00E94280383E0C5
:1007200080931A08089580911B088823A4F480916F
:100730001B0881FF0DC080911B0884FD06C00E942C
:10074000280383E080931A0808950E9420030895E7
:100750000E943503089580911B0886FF09C080918F
:100760001B0880FD05C00E944F0382E080931A0899
:1007700008951F920F920FB60F9211242F933F935B
:100780004F935F936F937F938F939F93AF93BF9399
:10079000EF93FF930E947103FF91EF91BF91AF918F
:1007A0009F918F917F916F915F914F913F912F9189
:1007B0000F900FBE0F901F9018958093AF399093B4
:1007C000B0390895E0E4F1E081818111FDCFE0E4EA
:1007D000F1E081E8808382E0828380E0089580E018
:1007E0000895CF92DF92FF920F931F93CF93DF93E1
:1007F000EC01AE81BF81EB01CC0FDD1FC60FD71F0F
:10080000CA0FDB1FFA80FC0144815581E6E0E69FB8
:100810009001E79F300D11248A01020F131FF80188
:1008200022813381F90121813281F801048115810E
:10083000201B310BE8812E1B3109EC01EA81FB8181
:1008400000811181FA0140E050E04017510739F171
:1008500046175707F9F012968C911297F8121AC0A2
:10086000808185588230E8F0C480D5808281938170
:10087000EC0189819A81C816D90660F48C199D090A
:10088000CC91D0E0C817D90728F48C1B9D0B2817F2
:10089000390738F04F5F5F4F13963696D6CF80E01A
:1008A00001C081E0DF91CF911F910F91FF90DF9008
:1008B000CF9008952091BD383091BE38820F931F9C
:1008C0008093BD389093BE3808950097D9F04115B4
:1008D0005105C1F026E0629FB0011124DC0114969D
:1008E000ED91FC911597E60FF71F21E020831496F8
:1008F0008D919C911597FC01E60FF71F428353835E
:1009000080E008958BE008952F923F924F925F927E
:100910006F927F928F929F92AF92BF92CF92DF920F
:10092000EF92FF920F931F93CF93DF93009709F4F9
:100930007DC3EC01A12CB12C812C912C212CD12C2C
:1009400033E0C32E45E8642E56E8752E67E0362E58
:1009500072E0472EE8E05E2EEA81FB818081918182
:100960008816990608F0A5C17501EE0CFF1C0C81D4
:100970001D810E0D1F1DD8018C91843009F4A2C079
:1009800038F4823001F108F049C0813059F08AC151
:10099000853809F4C2C0863809F4F6C0873009F0FA
:1009A00081C137C1D8011296ED91FC9113978081D6
:1009B0008E7109F069C14C928C819D81FC01EE0D14
:1009C000FF1D518261C1F8012181222329F102809A
:1009D000F381E02D253020F081819281D8010EC075
:1009E000D80114968D919C9115974181528184175D
:1009F000950769F04817590730F4019714968D93BD
:100A00009C93159704C00196F80184839583215027
:100A1000D80111962C9338C1F80131C1D801149630
:100A20002D913C91159712968D919C911397DC0115
:100A300011964D915C9112972417350709F432C134
:100A40008E819F8142175307E0F4241B350BDC0194
:100A5000AA0DBB1D8C9190E0058002C095958795ED
:100A60000A94E2F799272817390708F41BC18481F3
:100A7000882309F417C1F8013082EA81FB812481BF
:100A80001AC0FC01EA0DFB1D421B530B808190E054
:100A90004817590708F406C18281882331F0B40150
:100AA000CE010E94F1038111FDC0E4E0D801EC9376
:100AB000EA81FB8122818C819D81FC01EE0DFF1D6D
:100AC0002183E2C0D80114962D913C91159712967E
:100AD000ED91FC911397818192818217930708F41D
:100AE000D7C0EE81FF81EA0DFB1D821B930B208195
:100AF00030E02817390708F0AFC08281882331F031
:100B0000B401CE010E94F1038111CCC0F8018181B2
:100B1000882309F467C08150B6C0A881B981808557
:100B200013968C93EC81FD81EE0DFF1D4481558160
:100B3000A281B38111968D919C911297841795078C
:100B4000C0F0AE81BF81AA0DBB1D6C91262F30E095
:100B500011967C917F5F02C0359527957A95E2F7D3
:100B6000841B950B621B262F30E02817390708F4E9
:100B700097C07082EA81FB8122818C819D81FC017A
:100B8000EE0DFF1D218342C0D80114966D917C911A
:100B900015971296ED91FC911397218132812617BA
:100BA000370758F411968C911197811102C0CC929D
:100BB00077C08150F801818373C0EE81FF81EA0D17
:100BC000FB1D8081482F50E091819F5F02C05595A9
:100BD00047959A95E2F7261B370B841B90E0821706
:100BE000930760F4D8016C92EA81FB8123818C81A8
:100BF0009D81FC01EE0DFF1D218352C0F801818112
:100C0000811102C0C0824CC0815081832224239470
:100C10003BC0D80114962D913C91159712968D9159
:100C20009C911397DC0111968D919C9112978217DC
:100C3000930768F5281B390BAE81BF81AA0DBB1D38
:100C40008C9190E0058002C0959587950A94E2F713
:100C500099272817390718F4F801C0821AC0D8015B
:100C600011968C91119781110CC081E08C938C812D
:100C70009D81FC01EE0DFF1D0280F381E02DC082FD
:100C800011C08150F8018183DD24D3940BC0D801B9
:100C9000CC928C819D81FC01EE0DFF1D118202C062
:100CA00022242394BFEF8B1A9B0AE3E0AE0EB11C03
:100CB00053CEE881F981808187FF23C040E050E076
:100CC00020E030E0EA81FB8180819181281739079B
:100CD00098F4EC81FD81E40FF51FA281B3818C9122
:100CE00080FD05C09081977F11F081608C932F5F0C
:100CF0003F4F4A5F5F4FE6CFE881F98180818F7770
:100D00008083D11007C0E881F98121106FC08081F4
:100D10008E7F6EC0EA81FB8181858823A1F3E88103
:100D2000F981808180688083EA81FB8181858130BF
:100D300051F740E050E020E030E096E0D92EEA8123
:100D4000FB816081718126173707E8F60C811D81D0
:100D5000FA01EE0FFF1FE00FF11F8081982F977FA0
:100D6000A1F1853811F08330B1F5EE80FF80D70115
:100D7000A40FB51F1296BC90BB2039F180E090E023
:100D8000C12C86179707F8F428173907D1F0D89E99
:100D9000D001D99EB00D1124A00FB11FAC91A43089
:100DA00011F0A63871F4DC01AA0FBB1FA80FB91F00
:100DB000AE0DBF1D1296AC91BA1203C0CB01CC246C
:100DC000C3940196DECFC11006C00280F381E02DEE
:100DD00080818E7F05C00280F381E02D808181605B
:100DE00080832F5F3F4F4D5F5F4FA9CF8081816030
:100DF00080838091BD389091BE38E881F98121814E
:100E00003281A90148535F4F4817590738F4821BB4
:100E1000930BAA24A394A3E0BA2E44C0821793078D
:100E200010F080E004C1821B930B0197893C91056F
:100E3000C0F3EFCF885C9109E881F981218132818B
:100E400028533F4F218332832381211196C024816F
:100E5000222311F021502483E881F9812581222366
:100E600011F0215025838A809B80D40116962C9105
:100E7000169721111BC08A809B80F40127812111C4
:100E800048C0EA81FB812381222361F020E030E029
:100E9000A0E0B0E0EA81FB8140815181A417B50751
:100EA00008F46EC0893C910528F6BBCF08811981F2
:100EB000F80124812111DFCFED90FC9060E070E01B
:100EC00040E050E04E155F05F1F0EC81FD81E60F4A
:100ED000F71F2081233011F0283081F424813581DF
:100EE000C280D380D6011196CD90DC9012972C153C
:100EF0003D0520F42F5F3F4F248335834F5F5F4FC5
:100F00006A5F7F4FDFCFF4012681D80114962C93BE
:100F1000B2CF08811981D80115962C912111B1CF3A
:100F2000E080F18060E070E040E050E04E155F0549
:100F3000F1F0EC81FD81E60FF71F2081233011F0E5
:100F4000283081F424813581C280D380D601119666
:100F5000CD90DC901297C216D30620F421503109AF
:100F6000248335834F5F5F4F6A5F7F4FDFCFF4018C
:100F70002781D80115962C9384CF2150238381CFCC
:100F8000A901440F551FEC81FD81E40FF51F60811D
:100F9000653809F047C06181662319F061506183AB
:100FA00041C0A0826C817D81FB01E40FF51F0280AE
:100FB000F381E02DB082EE81FF81E20FF31FD2803A
:100FC000DD2081F140E050E000E010E0EA81FB81AB
:100FD000608171810617170728F5EE81FF81E40F04
:100FE000F51F6281D61219C0BA01660F771FEC8116
:100FF000FD814F01860E971EF401E280F380F70118
:10100000F080F0FE0AC0F401A082EC81FD81E60FC1
:10101000F71F0280F381E02DB0820F5F1F4F4D5FFD
:101020005F4FD4CF11962D5F3F4F34CF8BE0DF91D0
:10103000CF911F910F91FF90EF90DF90CF90BF90D5
:10104000AF909F908F907F906F905F904F903F9068
:101050002F90089595E09093C138E091B339F091C5
:10106000B4390188F289E02D309709F00994FFCF57
:10107000E091B339F091B4390388F489E02D3097C9
:1010800009F0099480E40C942A088091B339909176
:10109000B4390895CF938093B3399093B439809144
:1010A000C138853039F0823028F08091BF388823EC
:1010B00071F140C01092BF38C0E0A091B339B09137
:1010C000B4398C2F90E0880F991F1196ED91FC9107
:1010D0001297E80FF91F0190F081E02D309729F366
:1010E00017962D913C911897D901A80FB91F8D9192
:1010F0009C910995882329F08091BF388F5F809358
:10110000BF38CF5F8091BF388823B9F2CECF82E05D
:101110008093C138E091B339F091B4390784F089F4
:10112000E02D309711F0099508C085E08093C13813
:1011300081E001C08F5F8093BF388091BF388823E2
:1011400031F01092BF3880E8CF910C942A08CF91EB
:1011500008951F93CF93DF93182FA091B339B091C7
:10116000B43915962D913C911697D0E0F901ED0F09
:10117000F11DED0FF11D80819181892B11F0DF5F51
:10118000F5CF53968D919C915497892B49F1812FDE
:1011900090E0880F991FF901E80FF91F0190F08185
:1011A000E02D3097E9F01B962D913C911C97D901C9
:1011B000A80FB91F8D919C91009791F068E378E09A
:1011C0000995C82F811106C083E08093C138109221
:1011D000C03803C082E08093C1381D1728F001C0D9
:1011E000C2E082E80E942A088C2FDF91CF911F91E4
:1011F0000895E091B339F091B4390584F685E02D76
:1012000009941F93CF93DF931F92CDB7DEB7198256
:10121000E091B339F091B4390588F689E02D309723
:1012200049F082E08093C138CE010196099583E0B0
:101230008093C1388091BF3881112CC01981111160
:1012400029C084E08093C138A091B339B091B439FA
:101250008091C03890E0880F991F1396ED91FC9112
:101260001497E80FF91F0190F081E02D19962D9148
:101270003C911A97309781F0D901A80FB91F8D9131
:101280009C91099581113EC08091C0388F5F8093F9
:10129000C038DACF10E03DC01092C038F901E10F3C
:1012A000F11DE10FF11D0190F081E02D309759F013
:1012B0000190F081E02D808187FF03C09C919460B4
:1012C0009C931F5FEBCF1093C03882E08093C138AE
:1012D0005796ED91FC915897309711F0099505C0FC
:1012E0008091BF388F5F8093BF3810E08091BF3806
:1012F000882379F01092BF388091C03880640E94B2
:101300002A0807C08091BF388F5F8093BF3813E0F1
:10131000EDCF812F0F90DF91CF911F910895809194
:10132000C5389091C638A091B539B091B639ED91D4
:10133000FC9111974081518125E0289FB001299FA0
:10134000700D112420E030E084179507A8F414965E
:10135000ED91FC911597E20FF31FE60FF71FE08167
:101360002B5F3F4FE0FD02C00196EECF8093C53862
:101370009093C63880E008951092C5381092C63810
:1013800081E00895BC01E091B539F091B6399C0136
:1013900083E0220F331F8A95E1F7A281B381A20F68
:1013A000B31F12969C91129713968C9190932A06D4
:1013B00080932B06A281B381A20FB31F9C9111963B
:1013C0008C91909326068093270695E0969FA00126
:1013D000979F500D1124A481B581A40FB51F1396BA
:1013E0008C9180931A06A481B581A40FB51F149621
:1013F0008C9180931B06A481B581A40FB51F8C919D
:1014000081FD9C9384819581DC01A40FB51F8C9193
:101410008C7169F4A281B381A20FB31F1696AC91AF
:10142000A295AF70B0E0AE58B5468C9101C08FE385
:1014300080931C06A281B381A20FB31F14968C91D6
:101440008B3110F48C5F01C08FE180930506A2817F
:10145000B381A20FB31F17968C9180930106A281CE
:10146000B381A20FB31F15968C9182958F708093D4
:10147000190682819381FC01E20FF31F85818F7031
:10148000806180930206809118068360809318061D
:1014900081E88093000681E08093080608953F92DA
:1014A0004F925F926F927F928F929F92AF92BF9274
:1014B000CF92DF92EF92FF920F931F93CF93DF9320
:1014C0008091C438882309F448C1A091B539B091FE
:1014D000B639C090B739D090B83900E010E060E07C
:1014E00070E0E12CF12C80E033243394D1E84D2ED0
:1014F00088248A94992493946D907C901197F30199
:1015000020813181E216F30608F023C1E60129911A
:1015100039916E011496ED91FC911597E60FF71F26
:1015200040814C7150E05695479556954795411529
:10153000510521F041305105B9F002C11296CD910B
:10154000DC911397C00FD11F4E814F709F814917B7
:1015500010F4941B01C090E002C0369527959A952F
:10156000E2F721833283EDC012964D915C9113977F
:10157000400F511FEA010F8002C0369527950A944B
:10158000E2F721833283A380B4802115D2E03D07A6
:1015900020F02F5F314091E005C0A401421B530BA6
:1015A0009A0190E0E3015A80D0E45D1205C03695BF
:1015B0002795992319F009C0992339F04FEFA41604
:1015C000B40631F440828EE007C07724739401C0E2
:1015D000712C2A30310590F41496ED91FC911597F9
:1015E000E60FF71F908197FF30821496ED91FC91E2
:1015F0001597E60FF71FA382B482A3C0E501CD2F94
:10160000DD27C295CF709C2FA50144275F70652E02
:10161000A501407F5527529542954F7045275F7031
:1016200045275A2D5F70A52EC43030F09370D695A3
:10163000C795D695C7959C0F71103CC050E8550DC5
:10164000523010F456E007C053E005C0951768F417
:101650009F5F2F5C3109203D3105C0F706C0CFE008
:101660006C1649F063942551310926313105B8F7DC
:10167000DFE06D120EC0951720F49F5FD5E06D2E50
:1016800008C0CFE06C2E05C04F3049F04F5F2250AC
:10169000310923303105C0F74F3009F065C04FE004
:1016A000641681F1639445E05FC0992361F0915025
:1016B0002F5C3109203D3105C0F705C0662041F09F
:1016C0006A942551310926313105C0F761100DC0EA
:1016D000992321F091505AE0652E07C0612C05C076
:1016E000442341F041502250310923303105C0F7E5
:1016F000411110C06620E9F16A944AE023303105B7
:10170000C8F608C059132FC02330310540F14FE00F
:10171000A42E4FE0943018F0990F990F9950C0E122
:101720004C9FA001112456294A29C92FD0E0DC2F53
:10173000CC27D295D07F4C2B5D2B4383548301C0A3
:10174000FFCFDFEFED1AFD0A6B5F7F4F085F1F4F82
:10175000D3CE92E09093C4380EC083E00CC04FE02B
:101760002FE0A22ED7CF4FE02330310508F073CF02
:10177000D1CF40E0CFCFDF91CF911F910F91FF905C
:10178000EF90DF90CF90BF90AF909F908F907F9021
:101790006F905F904F903F900895CF93DF930097A5
:1017A000E1F1DC01ED91FC91A081B18160E070E09C
:1017B00040E050E020E030E04A175B0799F0EC0190
:1017C000EA81FB81E60FF71FC081D1810280F3819E
:1017D000E02DEC2BFD2B2E2B3F2B4F5F5F4F685FD7
:1017E0007F4FEACF21153105D1F08091C4388111A6
:1017F00008C0209322063093230681E08093C438EA
:101800000AC080912206822B8093220680912306B3
:10181000832B8093230680E003C08BE001C082E02D
:10182000DF91CF910895009731F08093B73990936D
:10183000B83980E008958BE008956115710591F144
:10184000009781F12091C438222371F1243071F185
:101850008093B5399093B6396093C2387093C3388A
:1018600020EC20931806DC01ED91FC9122812034BC
:1018700021F420911806206205C0203841F42091FF
:10188000180628622093180610921E0613C02138ED
:1018900079F42091180628622093180626E82093F0
:1018A0001E0608C08BE0089583E0089581E0089546
:1018B00082E0089510920006DC01ED91FC91848194
:1018C000803108F080E18093030681E080930B066D
:1018D00080930A068093B9381092C5381092C638A2
:1018E0000E948F0981110BC084E08093C4388091DD
:1018F000C5389091C6380E94C20980E0089582E000
:101900008093C43808950097C9F0DC01ED91FC91F3
:101910001197208131812617370790F045E0469FC7
:101920009001479F300D11241496ED91FC9115976D
:10193000E20FF31F81E0808380E008958BE008953B
:1019400082E00895FC01892BD1F1A081B1818D91B4
:101950009C91119786179707A0F112969C9104808D
:10196000F581E02D903459F485E0869FD001879F62
:10197000B00D1124AE0FBF1F84E392E00DC090584C
:10198000923080F485E0869FD001879FB00D1124AE
:10199000AE0FBF1F87E695E013968D939C93149727
:1019A00080E001C082E095E0969F9001979F300D06
:1019B0001124E20FF31F90819260908308958BE0D1
:1019C000089582E00895109200064091100650910B
:1019D00011068091C5389091C6389C01220F331FA3
:1019E000E091B739F091B839E20FF31F408351838A
:1019F00001968093C5389093C6380E948F09811153
:101A000009C084E08093C4388091C5389091C6386D
:101A10000C94C209E091C238F091C338099497FB45
:101A2000072E16F4009407D077FD09D00E94230DED
:101A300007FC05D03EF4909581959F4F08957095D1
:101A400061957F4F0895AA1BBB1B51E107C0AA1FD8
:101A5000BB1FA617B70710F0A61BB70B881F991F4F
:101A60005A95A9F780959095BC01CD010895F894F9
:021A7000FFCFA6
:061A72003F1C0B050301FF
:101A7800183800004E3800001D0C00004E380000D9
:101A880084040000CD0B0000E93844385F39203861
:101A980014010014010014010014010014010014C1
:101AA80001001401001401001401001401001401C4
:101AB800001401000C000400050014051401B438DA
:101AC8005438F038000080000002000400000001D3
:101AD80000020004000000020002000400004000B0
:101AE80000020004000020000002000400001000B2
:101AF80000020004000000200002000400000010A2
:101B080000020004000008000002000400000400B5
:101B180000020004000002000002000400000100AE
:0A1B2800000200040C0080300001F0
:00000001FF
